S01100004D6F76696E674361722E737265638D
S11300000C946A000C947B050C94A4050C94CD0507
S11300100C947C000C947C000C947C000C947C006C
S11300200C947C000C947C000C947C000C947C005C
S11300300C947C000C947C000C947C000C947C004C
S11300400C947C000C947C000C947C000C947C003C
S11300500C947C008103850389038D03910395032C
S113006099039D03A103A503A903AD03B103B5033C
S1130070B903BD03C103C503C903CD03D103D5032C
S1130080D903DD03E103E503E903ED03F103F5031C
S1130090F903FD030B040F04130417041B041F04CA
S11300A0230427042B042F04330437043B043F04A4
S11300B0430447044B044F04530457045B045F0494
S11300C0630467046B046F04730477047B047F0484
S11300D08304870411241FBECFE5D8E0DEBFCDBF63
S11300E020E0A0E6B0E001C01D92A736B207E1F718
S11300F00E941A010C9458060C94000062E00E94BD
S1130100590208950E948B04089560E00E945902E8
S1130110089561E00E947103089560E00E947103F4
S113012008950F931F93CF93DF93082F162FD42F87
S1130130C22F80E60E94F60560E0802F0E945902DB
S113014060E0812F0E94590260E08D2F0E945902C5
S113015060E08C2F0E945902DF91CF911F910F9183
S11301600895FF920F931F93CF93DF93F82ED62F0A
S1130170142FC22F802F0E94040661E08F2D0E944D
S1130180710361E0812F0E94710360E08D2F0E9452
S1130190710360E08C2F0E947103DF91CF911F9156
S11301A00F91FF900895FF920F931F93CF93DF93C6
S11301B0F82ED62F142FC22F802F0E94040660E041
S11301C08F2D0E94710361E0812F0E94710361E011
S11301D08D2F0E94710360E08C2F0E947103DF91C8
S11301E0CF911F910F91FF9008951F93CF93DF93A9
S11301F0D62F142FC22F60E00E94710360E0812F7C
S11302000E94710360E08D2F0E94710360E08C2FC7
S11302100E9471030E940906DF91CF911F910895F6
S11302202BE14AE169E188E10E94F50081E08093D5
S11302306000089589E090E00E947E008AE090E0EA
S11302400E947E0060E171E082E00E94620562E04B
S113025082E00E94DB0480E10E94850081E10E942B
S1130260850082E10E94850083E10E9485002BE1E4
S11302704AE169E188E10E94910089E090E00E94EE
S11302808200892B61F489E090E00E948200892B2E
S1130290D1F364E170E080E090E00E94180668EE1B
S11302A073E080E090E00E94180680916000813045
S11302B019F410926000E1CF0AEF2BE14AE169E101
S11302C088E10E94B10080E10E94890081E10E94DE
S11302D08D0082E10E948D0083E10E948D0068EB15
S11302E07BE080E090E00E941806809160008130FD
S11302F019F410926000C1CF2BE14AE169E188E171
S11303000E94F50080E10E948D0081E10E948D0031
S113031082E10E94890083E10E948D0064EF71E014
S113032080E090E00E94180680916000813019F40A
S113033010926000A2CF0AEF2BE14AE169E188E163
S11303400E94D30080E10E948D0081E10E948D0013
S113035082E10E948D0083E10E94890064EF71E0D4
S113036080E090E00E94180680916000813019F4CA
S11303701092600082CF2BE14AE169E188E10E949A
S1130380F50080E10E948D0081E10E948D0082E1F0
S11303900E94890083E10E948D0064EF71E080E097
S11303A090E00E94180680916000813019F4109248
S11303B0600063CF00E82BE14AE169E188E10E9433
S11303C0B10080E10E94890081E10E948D0082E1F8
S11303D00E948D0083E10E948D0060ED77E080E053
S11303E090E00E94180680916000813019F4109208
S11303F0600043CF2BE14AE169E188E10E94F50006
S113040080E10E948D0081E10E948D0082E10E94C2
S1130410890083E10E948D0064EF71E080E090E048
S11304200E94180680916000813019F410926000D7
S113043024CF0AEF2BE14AE169E188E10E94D3006D
S113044080E10E948D0081E10E948D0082E10E9482
S11304508D0083E10E94890064EF71E080E090E008
S11304600E94180680916000813019F41092600097
S113047004CF2BE14AE169E188E10E94F50080E1C3
S11304800E948D0081E10E948D0082E10E9489001A
S113049083E10E948D0064EF71E080E090E00E94AF
S11304A0180680916000813009F0F9CE1092600046
S11304B0E4CE613009F460C020F0623009F4B7C0C2
S11304C00895883098F44AB3877021E030E0B90188
S11304D002C0660F771F8A95E2F7CB01942F982B01
S11304E09ABB9BB3809589238BBB089598EF980F93
S11304F0983098F447B3877021E030E0B90102C026
S1130500660F771F8A95E2F7CB01942F982B97BB40
S113051098B38095892388BB089590EF980F9830FD
S113052098F444B3877021E030E0B90102C0660F4B
S1130530771F8A95E2F7CB01942F982B94BB95B340
S11305408095892385BB089598EE980F983008F01C
S1130550C7C041B3877021E030E0B90102C0660F23
S1130560771F8A95E2F7CB01942F982B91BB92B316
S11305708095892382BB0895883098F44AB38770A4
S113058021E030E0B90102C0660F771F8A95E2F7D7
S1130590CB018095942F98239ABB9BB389238BBB63
S11305A0089598EF980F983098F447B3877021E036
S11305B030E0B90102C0660F771F8A95E2F7CB01DC
S11305C08095942F982397BB98B3892388BB08956B
S11305D090EF980F983098F444B3877021E030E09E
S11305E0B90102C0660F771F8A95E2F7CB018095A7
S11305F0942F982394BB95B3892385BB089598EED3
S1130600980F983008F06CC041B3877021E030E057
S1130610B90102C0660F771F8A95E2F7CB01809576
S1130620942F982391BB92B3892382BB0895883079
S113063098F44AB3877021E030E0B90102C0660F34
S1130640771F8A95E2F7CB01962F909594239ABB56
S11306509BB3892B8BBB089598EF980F983098F42F
S113066047B3877021E030E0B90102C0660F771FFD
S11306708A95E2F7CB01962F9095942397BB98B374
S1130680892B88BB089590EF980F983098F444B361
S1130690877021E030E0B90102C0660F771F8A95A8
S11306A0E2F7CB01962F9095942394BB95B3892BB5
S11306B085BB089598EE980F983090F441B38770F5
S11306C021E030E0B90102C0660F771F8A95E2F796
S11306D0CB01962F9095942391BB92B3892B82BB27
S11306E00895662309F48DC0613009F013C190E0C8
S11306F08032910508F00EC1FC01E65DFF4F0C94B9
S113070052068BB381608BBB08958BB382608BBB25
S113071008958BB384608BBB08958BB388608BBBC7
S113072008958BB380618BBB08958BB380628BBBC0
S113073008958BB380648BBB08958BB380688BBBA7
S1130740089588B3816088BB089588B3826088BBAC
S1130750089588B3846088BB089588B3886088BB93
S1130760089588B3806188BB089588B3806288BB8C
S1130770089588B3806488BB089588B3806888BB73
S1130780089585B3816085BB089585B3826085BB78
S1130790089585B3846085BB089585B3886085BB5F
S11307A0089585B3806185BB089585B3806285BB58
S11307B0089585B3806485BB089584B3806884BB41
S11307C0089582B3816082BB089582B3826082BB44
S11307D0089582B3846082BB089582B3886082BB2B
S11307E0089582B3806182BB089582B3806282BB24
S11307F0089582B3806482BB089582B3806882BB0B
S1130800089590E08032910508F084C0FC01E65B15
S1130810FF4F0C9452068BB38E7F8BBB08958BB322
S11308208D7F8BBB08958BB38B7F8BBB08958BB36C
S1130830877F8BBB08958BB38F7E8BBB08958BB35F
S11308408F7D8BBB08958BB38F7B8BBB08958BB34C
S11308508F778BBB089588B38E7F88BB089588B348
S11308608D7F88BB089588B38B7F88BB089588B338
S1130870877F88BB089588B38F7E88BB089588B32B
S11308808F7D88BB089588B38F7B88BB089588B318
S11308908F7788BB089585B38E7F85BB089585B314
S11308A08D7F85BB089585B38B7F85BB089585B304
S11308B0877F85BB089585B38F7E85BB089585B3F7
S11308C08F7D85BB089585B38F7B85BB089585B3E4
S11308D08F7785BB089582B38E7F82BB089582B3E0
S11308E08D7F82BB089582B38B7F82BB089582B3D0
S11308F0877F82BB089582B38F7E82BB089582B3C3
S11309008F7D82BB089582B38F7B82BB089582B3AF
S11309108F7782BB0895883060F499B3282F2770AD
S1130920892F90E002C0959587952A95E2F781700A
S1130930089598EF980F983060F496B3282F277095
S1130940892F90E002C0959587952A95E2F78170EA
S1130950089590EF980F983060F493B3282F277080
S1130960892F90E002C0959587952A95E2F78170CA
S1130970089598EE980F983060F490B3282F27705C
S1130980892F90E002C0959587952A95E2F78170AA
S1130990089580E00895813029F48FB780688FBF6F
S11309A080E00895811105C08FB78F778FBF80E0F5
S11309B0089581E00895CF93DF93C82FD62F81E067
S11309C00E94CB04C13099F120F0C23009F45DC01B
S11309D072C0D11107C085B78E7F85BF85B78D7F63
S11309E085BF20C0D13039F485B78E7F85BF85B7E8
S11309F0826085BF17C0D23039F485B7816085BF66
S1130A0085B7826085BF0EC0D33039F485B7816065
S1130A1085BF85B78D7F85BF05C080E00E94CB046C
S1130A2081E04DC08BB780648BBF80E048C0D1119A
S1130A3007C085B78B7F85BF85B7877F85BF20C0FB
S1130A40D13039F485B78B7F85BF85B7886085BF82
S1130A5017C0D23039F485B7846085BF85B7886004
S1130A6085BF0EC0D33039F485B7846085BF85B7A0
S1130A70877F85BF05C080E00E94CB0481E01FC052
S1130A808BB780688BBF80E01AC0D13021F484B763
S1130A908F7B84BF0BC0D23021F484B7806484BFC1
S1130AA005C080E00E94CB0481E009C08BB780625E
S1130AB08BBF80E004C080E00E94CB0481E0DF9122
S1130AC0CF910895811105C070936600609365000D
S1130AD00895813031F4709364006093630080E082
S1130AE00895823031F4709362006093610080E075
S1130AF0089581E008951F920F920FB60F9211246A
S1130B002F933F934F935F936F937F938F939F9311
S1130B10AF93BF93EF93FF93E0916500F09166006C
S1130B20309709F00995FF91EF91BF91AF919F9193
S1130B308F917F916F915F914F913F912F910F9082
S1130B400FBE0F901F9018951F920F920FB60F9221
S1130B5011242F933F934F935F936F937F938F93BE
S1130B609F93AF93BF93EF93FF93E0916300F09152
S1130B706400309709F00995FF91EF91BF91AF910F
S1130B809F918F917F916F915F914F913F912F91A1
S1130B900F900FBE0F901F9018951F920F920FB6D3
S1130BA00F9211242F933F934F935F936F937F93EF
S1130BB08F939F93AF93BF93EF93FF93E091610063
S1130BC0F0916200309709F00995FF91EF91BF9180
S1130BD0AF919F918F917F916F915F914F913F91D1
S1130BE02F910F900FBE0F901F901895CF93C82F81
S1130BF060E08BE00E94590283B78C2383BF83B7E4
S1130C008C2B83BFCF9108958CBF83B7816083BF42
S1130C10089513BE089595B5892385BD64BD0895CF
S1130C2095B5892B85BD089584BD089515BC089597
S1130C308F929F92AF92BF92CF92DF92EF92FF92E8
S1130C40CF934B015C0167E087EB0E940B0682E0C7
S1130C500E941006C12CD12C760113C008B606FEE2
S1130C60FDCF87E00E94140688B7806488BFCF5FF9
S1130C7001C0C0E0C43090F38FEFC81AD80AE80A64
S1130C80F80AC814D904EA04FB0498F30E9416066F
S1130C90CF91FF90EF90DF90CF90BF90AF909F9057
S1130CA08F900895EE0FFF1F0590F491E02D0994A5
S1070CB0F894FFCFE2
S9030000FC
